:1000000000EF08F00000000000EF00F0000000002A
:0A0010000000000000000000F3D71C
:0A001C00530E0D6E0D2EFED71200DC
:1000260094948B94090E0D6E0D2EFED700000000E1
:0E00360094846A0E0D6E0D2EFED7000012008F
:1000440094948B94630E0D6E0D2EFED70000000069
:0E0054009484100E0D6E0D2EFED700001200CB
:0C00620000000000000000000000120080
:10006E00240E0C6EB50E0D6E0D2EFED70C2EFCD77B
:06007E000000000012006A
:100084000201B8BF02D0839E01D0838EB8BD02D0D6
:10009400839C01D0838CB8BB02D0839A01D0838A1D
:1000A400B8B902D0839801D0838887B102D0818AFD
:1000B40001D0819A8186D3DF8196B8B702D0839E1E
:1000C40001D0838EB8B502D0839C01D0838CB8B3A1
:1000D40002D0839A01D0838AB8B102D0839801D028
:1000E400838887B102D0818A01D0819A8186B7DF63
:0E00F400819687A102D0B9DF01D08EDF120005
:100102000201B8518C19006E2E0EE96E000EEA6ED5
:100112000050E926D8B0EA2AEECF00F000C08CF2F7
:020122001200C9
:1001240094948B94090E0D6E0D2EFED700000000E2
:1001340094840E0E0D6E0D2EFED700000000000EEE
:1001440082B4010E016E5B0E0D6E0D2EFED7000003
:0601540001C000F01200E2
:10015A0094948B94040E0C6E1C0E0D6E0D2EFED70D
:10016A000C2EFCD700009484740E0D6E0D2EFED753
:10017A000000000E82B4010E016E030E0C6EA80E72
:10018A000D6E0D2EFED70C2EFCD7000001C000F01C
:02019A00120051
:10019C000201B8A102D041DF01D04EDFB8A302D0DA
:1001AC003CDF01D049DFB8A502D037DF01D044DFF6
:1001BC00B8A702D032DF01D03FDFB8A902D02DDFC3
:1001CC0001D03ADFB8AB02D028DF01D035DFB8ADB3
:1001DC0002D023DF01D030DFB8AF02D01EDF01D058
:0401EC002BDF1200F3
:1001F000010E0201AA6F000EAB6FAC6BAD6BAE6B64
:10020000AF6B010EB66FB06BB16B8C6B88518911FF
:10021000D8A4D0D0A2DF005209E08A6B8B6B886B28
:10022000896B856B866B006A016AD8D0F00EB86F57
:10023000B5DF78DF00C0B2F2000EB36F73DF00C02D
:10024000B4F2000EB56F000EB31902E1010EB2193F
:1002500007E1000EB51902E1010EB41901E192D0D7
:10026000B351B51902E1B451B21903E0B2C2B7F209
:1002700037D0800EAB19006E800E8B19005C02E146
:100280008A51AA5D10E2FD0EAE25E96E010EAF2186
:10029000EA6EB651EE14B76FB7510008010ED8B030
:1002A000000EB76F09D0AB518B1902E18A51AA1920
:1002B000010ED8A4000EB76FB751000A11E1AAC20F
:1002C000ACF2ABC2ADF2800EAB19006E800E005CDA
:1002D00002E1090EAA5D04E2ACC285F2ADC286F26B
:1002E000B751010A14E1FD0EAE25016E010EAF21DA
:1002F000026E01C0E9FF02C0EAFFB651EE10006EC7
:1003000001C0E1FF02C0E2FF00C0E6FF14D0FD0E15
:10031000AE25016E010EAF21026EB61D006E01C04A
:10032000E9FF02C0EAFFEE50001601C0E1FF02C083
:10033000E2FF00C0E6FFB75302E075DE01D082DEC7
:10034000AA4BAB2BB6C201F00136019001C0B6F248
:100350000150000A0DE1FD0EAE25E96E010EAF2140
:10036000EA6EEECFB8F2CDDEAE4BAF2B010EB66F1C
:10037000800EAF19006E800E005C02E1080EAE5DCB
:10038000D8A057D7000EAB1902E1410EAA1912E10D
:10039000ACC28AF2ADC28BF2000EAD1902E1000EC2
:1003A000AC1904E1010E886F000E896F010EB06F69
:1003B000000EB16FB051B11104E00101FD5301E035
:1003C00009D002018A6B8B6B886B896B856B866B9E
:0E03D000B06BB16BB0C200F0B1C201F0120010
:0E03DE0002018791AAC2B8F24EDE878112009A
:0403EC0001DF12001B
:1003F0000134083609360450085E0550D8A0053C83
:10040000095E003601360F0E0C6E013408360936CF
:10041000045000A006D0085E0550D8A0053C095E37
:1004200005D008260550D8B0053C0926003601360F
:100430000C2EEBD700B006D0045008260550D8B0DB
:08044000053C09260000120032
:100448000B6A0A6A096A00500402F4CF09F0F3CF74
:1004580008F001500502F4CF0BF0F3CF0AF000507A
:100468000502F3500926F4500A22E86A0B220150CB
:100478000402F3500926F4500A22E86A0B2208C045
:1004880000F009C001F00AC002F00BC003F012002E
:10049800086A096A100E0C6E0134083609360450D1
:1004A800085E0550D8A0053C095ED8B007D00450B6
:1004B80008260550D8B0053C0926D89000360136E4
:0604C8000C2EEAD7120021
:1004CE0010D0800E0201A56F1AD0C00EA56F17D0E6
:1004DE00940EA56F14D0D40EA56F11D0800EA56FFB
:1004EE000ED00201A551010AECE0A551020AEDE081
:1004FE00A551030AEDE0A551040AEDE0EFD7A605DC
:10050E00006EA551002600C0A5F200C0B8F2B3DD02
:10051E008791A96BA951A725E96E000EA821EA6E55
:10052E00EE520BE0A951A725E96E000EA821EA6E46
:0E053E00EECFAAF24DDFA92BEDD78781120078
:10054C00086A080E0C6E003408360450085ED8B0E9
:0E055C0002D00826D89000360C2EF5D71200DB
:10056A0002018A6B8B6B886B896B856B866B3BDEB2
:02057A0012006D
:10057C00A69CA5C2A9FFA69EA680A8CF00F012003B
:10058C00A6A202D00000FCD7A69CA5C2A9FFA6C2B9
:10059C00A8FFA69EA684F2CF00F0F29E550EA76E81
:1005AC00AA0EA76EA68200BE02D0F29E01D0F28ED9
:0405BC00A6941200EF
:1005C000B1DD00B003D00201A59102D00201A581E6
:1005D000A9DD00B002D0A59301D0A583A3DD00B0B2
:1005E00002D0A59501D0A5859DDD00B002D0A597CC
:1005F00001D0A58797DD00B002D0A59901D0A589CB
:1006000091DD00B002D0A59B01D0A58B8BDD00B0A1
:1006100002D0A59D01D0A58D85DD00B002D0A59F9B
:0A06200001D0A58FA5C200F0120062
:10062A000201A96BA96B080EA95D13E2A951A525C0
:10063A00E96E000EA621EA6EA951A725D96E000E11
:10064A00A821DA6EEE50DE1802E0006A04D0A92B67
:08065A00EAD7010E006E120048
:1006620096C200F00032009E0032009E0032009ED0
:100672000032009EFF0E0024F66E130EF76E000E7F
:10068200F722000EF86E000EF8220900F5CF00F0F6
:1006920097C2E1FF98C2E2FF00C0E6FF010E02012D
:1006A2009725E16E000E9821E26E0F0E9615006EF0
:1006B200FF0E0024F66E130EF76E000EF722000EE8
:1006C200F86E000EF8220900F5CF00F000C0E6FF38
:1006D200020E9725E16E000E9821E26EE66A120084
:1006E2000900F5CFE6FF0006FBE10106F9E1120081
:1006F2009396939A9598959A959C959E8196819AB0
:10070200839E839C839A8398B1DCB0DCAFDC838ABE
:1007120083888186A5DC8196A9DC8186A1DC81960D
:10072200A5DC81869DDC8196A1DC8398818698DC9C
:1007320081969CDC818694DC8196839A838E818665
:100742008FDC819693DC839E8388818689DC819607
:100752008398818685DC819689DC818681DC81961D
:10076200838881867DDC819681DC8398818678DC32
:100772008196838E838C838A8388818671DC8196BD
:0807820075DC02018781120001
:10078A00FF0E0201A56FF5DE00C02CF0966B2C500F
:10079A00965D40E2976B080E975D3AE2030E026E91
:1007AA0096C200F0000E016E025005E0003600907D
:1007BA000136FF0FFAD7310E0026010E012297519A
:1007CA000024986F000E0120996F96C2A5F2A537F2
:1007DA00A591A537A591A537A591A537A5919751BB
:1007EA00A527C7DE98C2E1FF99C2E2FF00C0E6FF73
:1007FA00020E0B6E450E0C6EA90E0D6E0D2EFED757
:10080A000C2EFCD70B2EFAD700000000972BC3D76B
:06081A00962BBDD7120071
:10082000020199AF16D02D0E0101B16F0201981D82
:10083000036E991D046E03C098F204C099F203C0C0
:1008400000F004C001F001320032019E00C09AF2B3
:100850001BD098C200F099C201F001320032019E13
:1008600000C09AF2640E046E71DE00520AE0640E5B
:10087000046E9AC200F06ADE300E00240101B16FEE
:1008800003D00101300EB16F01010A0E046E9AC24D
:1008900000F05CDE0A0E046E59DE08C000F0300E77
:1008A0000024B26F0A0E046E9AC200F04FDE08C038
:1008B00000F0300E0024B36F2E0EB46F98C200F01B
:1008C00099C201F0003600900136003600900136E2
:1008D0000036009001360F0E0016000E0116710E44
:1008E000046E020E056EB0DDE80E046E030E056E9A
:1008F000D3DD300E0024B56FF80EB66FB76B96C21D
:10090000A5F297C2A6F2B10E0201A76F010EA86F61
:04091000DEDD120016
:1009140022DC550E0201B86F3FDC0101FB6B080EAF
:10092400FB5D13E2FB510708006E016A000E015AD9
:10093400005002019625E96E01509721EA6EEECF30
:10094400B8F22ADC0101FB2BEAD7440E0201B86F8E
:1009540023DCC70E0D6E0D2EFED700000000ADEC9B
:1009640000F0550EB86F18DC0101FB6B080EFB5D3F
:1009740013E2FB510708006E016A000E015A005091
:1009840002019625E96E01509721EA6EEECFB8F286
:1009940003DC0101FB2BEAD7BE0E0201B86FCEECDB
:1009A40000F00101FB6B020EFB5D15E29A0E0201E1
:1009B400A36F020EA46F0101FB510201A327D8B05B
:1009C400A42BFCDDA3C2E1FFA4C2E2FF00C0E6FF4A
:1009D4000101FB2BE8D79AC298F2000E0201996F2D
:1009E4009BC201F0006A985100269951012200C06F
:0809F40098F201C099F2120013
:1009FC000201966B976B800E9719006E800E005C4F
:100A0C0002E1100E965D13E2EB0E9625E16E010EDF
:100A1C009721E26EFF0EE66EDB0E9625E16E010E5F
:100A2C009721E26EFF0EE66E964B972BE4D72D6A5C
:100A3C0096DD00500110D8B495D00201966B976BDF
:100A4C00800E9719006E800E005C02E1080E965D18
:100A5C0029E2030E026E2DC000F0000E016E025052
:100A6C0005E0003600900136FF0FFAD7050E002680
:100A7C00020E012296510024E16E97510120E26E84
:100A8C0096510708006E97C201F0000E0156FD0E3C
:100A9C000024E96E010E0120EA6EEECFE6FF964BC4
:100AAC00972BCED70101FC6B0201966B976B800ED6
:100ABC009719006E800E005C02E12C50965D43E2AB
:100ACC00030E026E96C200F097C201F0025005E0D0
:100ADC00003600900136FF0FFAD7310E0024A56FB7
:100AEC00010E0120A66F030E026E2DC000F0000E49
:100AFC00016E025005E0003600900136FF0FFAD768
:100B0C00050E0024A76F020E0120A86F88DD00528D
:100B1C0017E0010E0101FC6FEB0EE16E010EE26EAF
:100B2C002D50E126D8B0E22A010EE66EDB0E020152
:100B3C009625E16E010E9721E26E010EE66E03D052
:100B4C00964B972BB4D70101FC51000A09E1EB0E2F
:100B5C00E16E010EE26E2D50E126D8B0E22AE66A73
:100B6C002D2A0DD02C50000A0AE1010E0201A56FAE
:100B7C00010EA66F150EA76F000EA86FA2DC30DC5D
:100B8C0000500110D8B495D00201966B976B800E73
:100B9C009719006E800E005C02E1080E965D29E24A
:100BAC00030E026E2DC000F0000E016E025005E027
:100BBC00003600900136FF0FFAD7050E0026020E04
:100BCC00012296510024E16E97510120E26E96515C
:100BDC000708006E97C201F0000E0156FD0E0024AE
:100BEC00E96E010E0120EA6EEECFE6FF964B972BD5
:100BFC00CED70101FC6B0201966B976B800E971997
:100C0C00006E800E005C02E12C50965D43E2030EF8
:100C1C00026E96C200F097C201F0025005E0003659
:100C2C0000900136FF0FFAD7310E0024A56F010E8C
:100C3C000120A66F030E026E2DC000F0000E016E97
:100C4C00025005E0003600900136FF0FFAD7050E72
:100C5C000024A76F020E0120A86FE1DC005217E000
:100C6C00010E0101FC6FEB0EE16E010EE26E2D50D8
:100C7C00E126D8B0E22A010EE66EDB0E02019625C3
:100C8C00E16E010E9721E26E010EE66E03D0964BDB
:100C9C00972BB4D70101FC51000A09E1EB0EE16E70
:100CAC00010EE26E2D50E126D8B0E22AE66A2D2A1A
:100CBC0066D70201966B976B800E9719006E800EAB
:100CCC00005C02E12C50965D13E2DB0E9625E96E7A
:100CDC00010E9721EA6EEE50010A07E0DB0E962515
:100CEC00E16E010E9721E26EE66A964B972BE4D7E4
:100CFC00966B976B800E9719006E800E005C02E16C
:100D0C002D50965DD8B00BD1EB0E9625E96E010EE9
:100D1C009721EA6EEE50000AD8A4FDD00101FC6BBD
:100D2C000201986B996B800E9919006E800E005C15
:100D3C0002E12C50985DD8B080D0DB0E9825E96E7E
:100D4C00010E9921EA6EEE50000A74E1010E0101C8
:100D5C00FC6F02019A6B9B6B800E9B19006E800ED0
:100D6C00005C02E1080E9A5D5CE2040E006E98C213
:100D7C00A5F2005004E0A537A591FF0FFBD79A51BF
:100D8C00A527030E026E96C200F097C201F0025026
:100D9C0005E0003600900136FF0FFAD7050E00264D
:100DAC00020E01229A510024E96E9B510120EA6E39
:100DBC00EECFA6F2C6EC02F0030E026E98C200F063
:100DCC0099C201F0025005E0003600900136FF0F89
:100DDC00FAD7310E0026010E012202019A5100248D
:100DEC00E16E9B510120E26E030E026E96C200F082
:100DFC0097C201F0025005E0003600900136FF0F5B
:100E0C00FAD70201050E0026020E01229A51002487
:100E1C00E96E9B510120EA6EEECFE6FF9A4B9B2BBD
:100E2C009BD7DB0E9825E16E010E9921E26E010E27
:100E3C00E66E03D0984B992B76D70101FC51000A32
:100E4C006AE102019A6B9B6B800E9B19006E800EFF
:100E5C00005C02E1080E9A5D5CE22CC0A5F2A5379D
:100E6C00A591A537A591A537A591A537A5919A511F
:100E7C00A527030E026E96C200F097C201F0025035
:100E8C0005E0003600900136FF0FFAD7050E00265C
:100E9C00020E01229A510024E96E9B510120EA6E48
:100EAC00EECFA6F2C6EC02F0030E026E2CC000F0E0
:100EBC00000E016E025005E0003600900136FF0F67
:100ECC00FAD7310E0026010E012202019A5100249C
:100EDC00E16E9B510120E26E030E026E96C200F091
:100EEC0097C201F0025005E0003600900136FF0F6A
:100EFC00FAD70201050E0026020E01229A51002497
:100F0C00E96E9B510120EA6EEECFE6FF9A4B9B2BCC
:100F1C009BD72C2A04D00201964B972BEBD6FF0EB5
:0C0F2C00A56F2CC0A6F2C6EC02F012006B
:100F38000450000A08E10550000A05E1FF0E006EA2
:100F48007F0E016E58D00D6A096A086A01500010B8
:100F5800D8B4000C015005180A6E0ABE0D1E0B6AA3
:100F680005AE05D0041E051E042AD8B4052A01AE14
:100F780005D0001E011E002AD8B4012A0150051010
:100F88000A6E0ABE10D0F8EC01F00BB020D00DAEFE
:100F9800000C001E011E002AD8B4012A081E091ED2
:100FA800082AD8B4092A000C05AE0DD001BE07D016
:100FB8000150096E0050086E016A006AE8D7016A9C
:100FC800006A002A000C011E001E0B2ADDD7082A21
:100FD800D8B4092A0450085CD8A4D9D70550095CAC
:100FE800D8A4D5D7096A086A002AD8B4012A01AE5C
:080FF800CED70000FF0C12002F
:1010000008EC0AF0B86AB96A0F0EC16E070E936E4B
:10101000200E926E956A949C8B9C8A98F29E79EC35
:1010200003F0010EB86F42EC00F00C0EB86F42EC0A
:1010300000F0030E0B6E8A0E0C6E550E0D6E0D2E0B
:10104000FED70C2EFCD70B2EFAD700000000C5EC03
:1010500003F0D4DC0201906B916B800E9119006E4D
:10106000800E005C02E12C50905DD8B03AD1300E79
:10107000902501012E6F3A0E2F6F306B90C200F059
:1010800091C201F001320032019E01BC018E020EBC
:10109000046E000E056E50DF08C000F009C001F0BC
:1010A0000050010F0201A56F020E046E000E056EC6
:1010B00090C200F091C201F03FDF08C000F009C00B
:1010C00001F0000E011802E1000E001804E1010E0B
:1010D00002018D6F03D00201090E8D6F8DC2A6F241
:1010E0002E0EA76F010EA86F67EC02F0DB0E9025A5
:1010F000E96E010E9121EA6EEE50000A39E190C2CC
:1011000000F091C201F001320032019E01BC018E5B
:10111000020E046E000E056E0FDF08C000F009C05D
:1011200001F00050010F0201A56F020E046E000EC7
:10113000056E90C200F091C201F0FEDE08C000F022
:1011400009C001F0000E011802E1000E001804E1D0
:10115000030E02018E6F03D002010B0E8E6F8EC242
:10116000A6F2250EA76F000EA86F67EC02F0B6D0AE
:1011700090C200F091C201F0003600900136BB0E23
:101180000024946F010E0120956F030E026E90C231
:1011900000F091C201F0025005E0003600900136E7
:1011A000FF0FFAD7310E0024966F010E0120976FC2
:1011B0008AEC04F094C2E1FF95C2E2FF00C0E6FFB2
:1011C00001C0E6FF90C200F091C201F0013200328E
:1011D000019E01BC018E020E046E000E056EACDE97
:1011E00008C000F009C001F00050010F0201966F25
:1011F000020E046E000E056E90C200F091C201F066
:101200009BDE08C000F009C001F0000E011802E1E9
:10121000000E001804E1030E02018F6F03D00201DB
:101220000B0E8F6F8FC297F290C200F091C201F047
:10123000003600900136BB0E0024E96E010E01203D
:10124000EA6EEECF98F2EECF99F210EC04F0926BCA
:10125000936B800E9319006E800E005C02E1080E05
:10126000925D2FE2030E026E90C200F091C201F077
:10127000025005E0003600900136FF0FFAD7310E1C
:101280000026010E012292510024E96E93510120A3
:10129000EA6EEECF96F2B80E976F010E986F31ECB2
:1012A00003F0020EA56F92C2A6F2A637A691A62B56
:1012B000B80EA76F010EA86F67EC02F0924B932B4C
:1012C000C8D71A0E0B6E5E0E0C6E6E0E0D6E0D2EC6
:1012D000FED70C2EFCD70B2EFAD70000904B912B8B
:0612E000BCD6B8D6FFD712
:1014100010EE15F0190E006E020E016EE60EF66E5D
:0E142000120EF76E000EF86E71EC03F0120063
:1012E6004E696A6564616E2073656E7A6F7221005D
:0712F6007878782E7878006B
:0112FD0000F0
:0112FE0000EF
:1012FF00005EBCE2613FDD83C29C7E20A3FD1F41E7
:10130F009DC3217FFCA2401E5F01E3BD3E6082DCD6
:10131F00237D9FC1421CFEA0E1BF5D0380DE3C62C6
:10132F00BEE0025CDF81633D7C22C09E1D43A1FFB6
:10133F004618FAA427799BC584DA3866E5BB5907A6
:10134F00DB856739BAE406581947A5FB7826C49A96
:10135F00653BD987045AB8E6A7F91B45C6987A2486
:10136F00F8A6441A99C7257B3A6486D85B05E7B976
:10137F008CD2306EEDB3510F4E10F2AC2F7193CD66
:10138F00114FADF3702ECC92D38D6F31B2EC0E5056
:10139F00AFF1134DCE90722C6D33D18F0C52B0EE46
:1013AF00326C8ED0530DEFB1F0AE4C1291CF2D7336
:1013BF00CA947628ABF517490856B4EA6937D58B26
:1013CF005709EBB536688AD495CB2977F4AA481616
:1013DF00E9B7550B88D6346A2B7597C94A14F6A806
:1013EF00742AC896154BA9F7B6E80A54D7896B35F6
:1013FF00303132333435363738394142434445463C
:020000040030CA
:0D000100C20F3E3C9D81FF0FC00FE00F407D
:0200000400F00A
:10000000FFFFFFFFFFFFFFFFFFFFFFFFFFFFFFFF00
:10001000FFFFFFFFFFFFFFFFFFFFFFFFFFFFFFFFF0
:10002000FFFFFFFFFFFFFFFFFFFFFFFFFFFFFFFFE0
:10003000FFFFFFFFFFFFFFFFFFFFFFFFFFFFFFFFD0
:10004000FFFFFFFFFFFFFFFFFFFFFFFFFFFFFFFFC0
:10005000FFFFFFFFFFFFFFFFFFFFFFFFFFFFFFFFB0
:10006000FFFFFFFFFFFFFFFFFFFFFFFFFFFFFFFFA0
:10007000FFFFFFFFFFFFFFFFFFFFFFFFFFFFFFFF90
:10008000FFFFFFFFFFFFFFFFFFFFFFFFFFFFFFFF80
:10009000FFFFFFFFFFFFFFFFFFFFFFFFFFFFFFFF70
:1000A000FFFFFFFFFFFFFFFFFFFFFFFFFFFFFFFF60
:1000B000FFFFFFFFFFFFFFFFFFFFFFFFFFFFFFFF50
:1000C000FFFFFFFFFFFFFFFFFFFFFFFFFFFFFFFF40
:1000D000FFFFFFFFFFFFFFFFFFFFFFFFFFFFFFFF30
:1000E000FFFFFFFFFFFFFFFFFFFFFFFFFFFFFFFF20
:1000F000FFFFFFFFFFFFFFFFFFFFFFFFFFFFFF000F
:00000001FF

